:020000040800F2
:1000000000500020A90E0008F30E0008F50E0008AD
:10001000F70E0008F90E0008FB0E000800000000B3
:10002000000000000000000000000000FD0E0008BD
:10003000FF0E000800000000010F0008030F000879
:10004000F10E0008F10E0008F10E0008F10E000894
:10005000F10E0008F10E0008F10E0008F10E000884
:10006000F10E0008F10E0008F10E0008F10E000874
:10007000F10E0008F10E0008F10E0008F10E000864
:10008000F10E0008F10E0008F10E0008F10E000854
:10009000F10E0008F10E0008F10E0008F10E000844
:1000A000F10E0008F10E0008F10E0008F10E000834
:1000B000F10E0008F10E0008F10E0008F10E000824
:1000C000F10E0008F10E0008F10E0008F10E000814
:1000D000F10E0008E90D0008F10E0008F10E00080D
:1000E000F10E0008F10E0008F10E000800000000FB
:1000F0000000000000000000000000000000000000
:0C01000000000000000000005FF808F1A3
:10010C0010B5054C237833B9044B13B10448AFF345
:10011C0000800123237010BD14000020000000009B
:10012C000C01000808B5034B1BB103490348AFF39E
:10013C00008008BD00000000180000200C01000821
:10014C0040F0BF6040F40030014BD860704700BFF6
:10015C0000ED00E0C378FBB1154BDA68D243C2F373
:10016C000222C2F1040C0F2323FA02F2417801FAA5
:10017C000CF1837813400B431B010278DBB20D4961
:10018C000A4482F80033037803F01F005B09012254
:10019C00824041F823207047037803F01F015B096C
:1001AC0001228A402033034941F82320704700BFC5
:1001BC0000ED00E000E100E030B5CB7803F00F0279
:1001CC00964613F0100F03D091F802E04EEA020E9F
:1001DC000B7803B30468002301E042610133072B61
:1001EC0018D801229A40B1F800C032EA0C05F5D1BA
:1001FC004FEA830C0F2505FA0CF524EA05040EFAD8
:10020C000CFC4CEA0404CD78282DE6D0482DE5D121
:10021C000261E3E704600B88FF2B25D944680023B7
:10022C0003E0CD78482D1CD00133072B1BD803F1EC
:10023C00080C012202FA0CF2B1F800C032EA0C05EB
:10024C00F2D14FEA830C0F2505FA0CF524EA0504CC
:10025C000EFA0CFC4CEA0404CD78282DE1D1426155
:10026C00DFE70261E0E7446030BD01617047416146
:10027C007047000010B4294B5B6803F00C03042B8F
:10028C002BD0082B2CD013B1254B036001E0244B51
:10029C00036022494B68C3F30313224CE35CDAB2CC
:1002AC000368D34043604A68C2F30222A25CD2B214
:1002BC0023FA02F282604A68C2F3C222A25CD2B272
:1002CC00D340C3604A68C2F3813217498A5CD2B208
:1002DC00B3FBF2F3036110BC7047114B0360D8E71A
:1002EC000E4A53685268C3F38343023312F4803FBF
:1002FC0004D10E4A02FB03F30360CAE7074A5268B3
:10030C0012F4003F04D0094A02FB03F30360C0E778
:10031C00034A02FB03F30360BBE700BF001002407B
:10032C0000127A00040000200000002000093D00AB
:10033C0021B1054A9369184390617047024A936949
:10034C0023EA0000906170470010024021B1054A79
:10035C00D3691843D0617047024AD36923EA00007D
:10036C00D06170470010024003889BB2214A904232
:10037C0012D002F5006290420ED0B0F1804F0BD03B
:10038C00A2F59832904207D002F58062904203D0D9
:10039C0002F58062904203D123F070034A88134324
:1003AC00154A904208D002F58062904204D023F4A2
:1003BC0040739BB2CA88134303808B8883850B8858
:1003CC0003850C4B98420FD003F5006398420BD079
:1003DC0003F54063984207D003F58063984203D03D
:1003EC0003F58063984201D10B7A03860123838243
:1003FC00704700BF002C01400010004010B4038C6B
:10040C009BB223F001039BB20384038C9BB2B0F824
:10041C0004C01FFA8CFC028B92B222F073020C887F
:10042C00224323F002030C8923434C882343154CAD
:10043C00A0420FD004F50064A0420BD004F5406438
:10044C00A04207D004F58064A04203D004F5806478
:10045C00A0420FD123F008034C89234323F004035B
:10046C008C8823432CF4407C8C894CEA040CCC897A
:10047C0044EA0C0CA0F804C00283CA888286038468
:10048C0010BC7047002C014000B5038C9BB223F0CC
:10049C0010039BB20384038C9BB2B0F804E01FFAE8
:1004AC008EFEB0F818C01FFA8CFC2CF4E64C0A88AF
:1004BC00120292B24CEA020C23F020030A891201B8
:1004CC0092B21A434B881B019BB21343134A9042BE
:1004DC0003D002F50062904217D123F080034A89C1
:1004EC00120192B2134323F040028B881B019BB282
:1004FC0013432EF4406E8A89920092B24EEA020E99
:10050C00CA89920092B242EA0E0EA0F804E0A0F85A
:10051C0018C0CA88028703845DF804FB002C0140D4
:10052C0000B5038C9BB223F480739BB20384038CC1
:10053C009BB2B0F804E01FFA8EFEB0F81CC01FFA94
:10054C008CFC2CF0730C0A884CEA020C23F400731C
:10055C000A89120292B21A434B881B029BB21343B4
:10056C00134A904203D002F50062904217D123F453
:10057C0000634A89120292B2134323F480628B887F
:10058C001B029BB213432EF4405E8A89120192B275
:10059C004EEA020ECA89120192B242EA0E0EA0F87D
:1005AC0004E0A0F81CC0CA88828703845DF804FBB1
:1005BC00002C014010B5038C9BB223F480539BB2EA
:1005CC000384038C9BB2B0F804E01FFA8EFE828B7E
:1005DC0092B222F4E64C0A88120292B24CEA02025F
:1005EC0023F40053B1F808C04FEA0C3C1FFA8CFC02
:1005FC0043EA0C0C4B881B039BB243EA0C030C4CD8
:10060C00A04203D004F50064A04209D12EF4804E20
:10061C00B1F80CC04FEA8C1C1FFA8CFC4EEA0C0E85
:10062C00A0F804E08283CA88A0F84020038410BD9F
:10063C00002C01400023038043808380C38003810E
:10064C0043818381C381704729B103889BB243F0F6
:10065C0001030380704703889BB223F001039BB214
:10066C000380704703899BB223F007039BB203817D
:10067C007047818670470187704781877047A0F863
:10068C004010704730B587B004460D46038A9BB2C4
:10069C00CA8823F440531343038283899BB289880D
:1006AC0028896A8901430A4323F4B05323F00C03CD
:1006BC001343A381A38A9BB2AA8923F440731343E7
:1006CC00A38201A8FFF7D6FD1D4B9C4224D0039BAF
:1006DC00A28912F4004F21D103EB830303EB8303B4
:1006EC002A689200B3FBF2F3164AA2FB03125209DA
:1006FC001101642002FB1033A28912F4004F16D1B1
:10070C001B0132330F4AA2FB0323C3F343130B43E6
:10071C009BB2238107B030BD049BD9E703EB830365
:10072C0003EB83032A685200B3FBF2F3DCE7DB0034
:10073C003233044AA2FB0323C3F342130B43E7E710
:10074C00003801401F85EB5129B183899BB243F4DA
:10075C0000538381704783899BB223F400539BB26F
:10076C0083817047C1F3421C01F01F01012303FA7E
:10077C0001F19C4508D0BCF1020F07D014303AB1FE
:10078C0003681943016070470C30F8E71030F6E746
:10079C00036823EA010101607047C1F308018180FD
:1007AC0070478088C0F3080070470388194201D055
:1007BC000120704700207047C1F3421201F01F0C5A
:1007CC00012303FA0CF3012A0FD0022A11D0828ADA
:1007DC0092B21340090A012202FA01F1028892B284
:1007EC000A4053B15AB900207047828992B2134023
:1007FC00F0E7028A92B21340ECE700207047012028
:10080C007047090A01238B409BB2DB439BB20380E8
:10081C007047000082B00023019300932C4A1368A8
:10082C0043F4803313602A4B1B6803F400330093AA
:10083C00019B01330193009B1BB9019BB3F5A06F86
:10084C00F1D1234B1B6813F4003F06D00123009316
:10085C00009B012B04D002B0704700230093F7E7F4
:10086C001C4B1A6842F010021A601A6822F003023C
:10087C001A601A6842F002021A60A3F580535A6893
:10088C005A605A685A605A6842F480625A605A68D0
:10089C0022F47C125A605A6842F4E8125A601A68C0
:1008AC0042F080721A600A4B1B6813F0007FFAD07A
:1008BC00074B5A6822F003025A605A6842F002024F
:1008CC005A60034B5B6803F00C03082BF9D1C2E7A9
:1008DC00001002400020024008B5FFF79BFF08BD46
:1008EC0008B5104B1A6842F001021A6059680E4A9A
:1008FC000A405A601A6822F0847222F480321A601C
:10090C001A6822F480221A605A6822F4FE025A6095
:10091C004FF41F029A60FFF7DFFF044B4FF00062A9
:10092C009A6008BD001002400000FFF800ED00E0E6
:10093C00F0B583B000F03EF9002000F093F90121EE
:10094C000420FFF7F5FC01210820FFF7F1FCF0274C
:10095C00ADF8047010238DF8073003238DF80630A2
:10096C000B4E01A93046FFF727FC40F60345ADF8C6
:10097C000450084C01A92046FFF71EFC39463046AE
:10098C00FFF773FC29462046FFF76FFC03B0F0BD60
:10099C0000080140000C014070B5041E17DD184E14
:1009AC0050213046FFF761FC164D40F201412846BC
:1009BC00FFF75BFCA0213046FFF759FC40F6020123
:1009CC002846FFF754FCA0B200F04CF970BD0C4E59
:1009DC00A0213046FFF749FC0A4D40F6020128469B
:1009EC00FFF743FC50213046FFF741FC40F2014138
:1009FC002846FFF73CFC604280B200F033F9E5E793
:100A0C0000080140000C014008B5F0210548FFF733
:100A1C002CFC40F603410448FFF727FC002000F0B3
:100A2C0021F908BD00080140000C014038B50378DD
:100A3C00732B0BD0662B0FD0622B29D06C2B46D08E
:100A4C00722B71D04F4800F0B1F904E0FFF7DCFFD6
:100A5C004D4800F0ABF938BD8378322B0AD0332BDC
:100A6C000FD0312BF7D11E20FFF796FF474800F02F
:100A7C009DF9F0E73220FFF78FFF454800F096F91B
:100A8C00E9E76420FFF788FF424800F08FF9E2E7BE
:100A9C008378322B0BD0332B11D0312BDBD16FF071
:100AAC001D00FFF779FF3C4800F080F9D3E76FF0A9
:100ABC003100FFF771FF394800F078F9CBE76FF0A0
:100ACC006300FFF769FF364800F070F9C3E7FFF7E2
:100ADC009BFF344D10212846FFF7C7FB324C0121F8
:100AEC002046FFF7C2FB20212846FFF7C0FB02215E
:100AFC002046FFF7BCFB80212846FFF7B6FB4FF4DE
:100B0C0000612046FFF7B1FB40212846FFF7AFFB01
:100B1C004FF480612046FFF7AAFB322000F0A2F8C8
:100B2C00224800F043F996E7FFF76EFF1D4D402178
:100B3C002846FFF79AFB1C4C4FF480612046FFF7C8
:100B4C0094FB80212846FFF792FB4FF4006120466E
:100B5C00FFF78DFB20212846FFF787FB022120465B
:100B6C00FFF783FB10212846FFF781FB012120466C
:100B7C00FFF77DFB322000F075F80D4800F016F9F8
:100B8C0069E700BFF80F00084C0F0008580F000869
:100B9C006C0F0008800F0008940F0008A80F0008C5
:100BAC00BC0F000800080140000C0140D00F0008E9
:100BBC00E40F000830B589B001210846FFF7C6FBE9
:100BCC0001210420FFF7B4FB0F23ADF81C301823D0
:100BDC008DF81F3003238DF81E3007A92048FFF72E
:100BEC00EBFA4FF08040FFF73DFD6323ADF8143076
:100BFC002323ADF810300024ADF81640ADF81240A8
:100C0C008DF8184004A94FF08040FFF7ADFB684603
:100C1C00FFF710FD6023ADF800300125ADF8025050
:100C2C00ADF80640ADF8084069464FF08040FFF73C
:100C3C00E5FB69464FF08040FFF726FC69464FF014
:100C4C008040FFF76DFC69464FF08040FFF7B2FC27
:100C5C0029464FF08040FFF7F7FC09B030BD00BFCC
:100C6C000008014010B5642801D804461ED14FF08D
:100C7C008044A18D89B2013189B22046FFF7F9FC7D
:100C8C00A18D89B2013189B22046FFF7F4FCA18D08
:100C9C0089B2013189B22046FFF7EFFCA18D89B2F0
:100CAC00013189B22046FFF7EAFC10BD01464FF036
:100CBC008040FFF7DEFC21464FF08040FFF7DBFC65
:100CCC0021464FF08040FFF7D8FC21464FF0804082
:100CDC00FFF7D5FCE9E7000030B587B001214FF4F0
:100CEC008040FFF725FB01210420FFF721FB4FF487
:100CFC000073ADF8143018238DF8173003258DF8D8
:100D0C001650214C05A92046FFF756FA4FF4806384
:100D1C00ADF8143004238DF817308DF8165005A952
:100D2C002046FFF749FA4FF4E13301930023ADF865
:100D3C000830ADF80A30ADF80C300C22ADF80E20AE
:100D4C00ADF81030114D01A92846FFF79BFC01228C
:100D5C0040F225512846FFF705FD4FF4A060FFF740
:100D6C00EFF925238DF8003001248DF801408DF822
:100D7C0002408DF803406846FFF7ECF921462846FF
:100D8C00FFF7E2FC07B030BD00080140003801401D
:100D9C0008B501460448FFF700FD80210248FFF723
:100DAC0004FD0028F9D008BD0038014038B50546CF
:100DBC00002403E00134E4B2FFF7EAFF285D0028C9
:100DCC00F8D138BD044B1878012801D000207047A9
:100DDC0000221A70704700BF3100002008B540F2A5
:100DEC0025511948FFF7E8FC012800D008BD16482A
:100DFC00FFF7D7FCC0B2154B1B7873B9402805D050
:100E0C0040F225511048FFF7FCFCEFE70F4B012295
:100E1C001A700F4B00221A70F2E7012BF0D12A281E
:100E2C0006D00B4A1378591C11700A4AD054E7E7C4
:100E3C000023064A1370084A01211170044A1278E3
:100E4C0004498B54DCE700BF00380140300000201F
:100E5C0098000020340000203100002008B5FFF776
:100E6C003BFF0448FFF7A2FFFFF762FD0020FFF7EE
:100E7C0093FD08BD0410000808B5FFF7A3FF012877
:100E8C0000D008BD0148FFF7D1FDFAE7340000207F
:100E9C0008B5FFF7E3FFFFF7EFFFFCE7002103E0E6
:100EAC000B4B5B58435004310A480B4B42189A4287
:100EBC00F6D30A4A02E0002342F8043B084B9A425C
:100ECC00F9D3FFF70DFD00F017F8FFF7E1FF7047BE
:100EDC002C1000080000002014000020140000203A
:100EEC009C000020FEE77047FEE7FEE7FEE7FEE70A
:100EFC00704770477047704770B500260C4D0D4C0D
:100F0C00641BA410A64209D100F07AF800260A4D01
:100F1C000A4C641BA410A64205D170BD55F8043BC5
:100F2C0098470136EEE755F8043B98470136F2E74F
:100F3C0024100008241000082410000828100008B1
:100F4C004D6F746F722053746F7000004D6F746F1F
:100F5C007220466F7277617264203330000000009B
:100F6C004D6F746F7220466F7277617264203530EA
:100F7C00000000004D6F746F7220466F72776172C3
:100F8C0064203130300000004D6F746F722042616C
:100F9C00636B776172642033300000004D6F746FA7
:100FAC0072204261636B77617264203530000000FF
:100FBC004D6F746F72204261636B77617264203184
:100FCC00303000004D6F746F72204C656674205485
:100FDC0075726E20353000004D6F746F722052693F
:100FEC00676874205475726E20353000496E7661D6
:100FFC006C696420434D44005374617274000000AA
:10100C00F8B500BFF8BC08BC9E467047F8B500BFE9
:08101C00F8BC08BC9E467047B9
:04102400310100088E
:041028000D010008AE
:10102C00020406080000000001020304010203048C
:04103C000607080992
:0400000508000EA938
:00000001FF
